:020000040800F2
:10000000100A002089010008E9010008E901000840
:10001000E9010008E9010008E9010008000000000A
:10002000000000000000000000000000E9010008DE
:10003000E901000800000000E9010008E9010008EA
:10004000E9010008E9010008E9010008E9010008E8
:10005000E9010008E9010008E9010008E9010008D8
:10006000E9010008E9010008E9010008E9010008C8
:10007000E9010008E9010008E90100081D03000882
:10008000E9010008E9010008E9010008E9010008A8
:10009000E9010008E9010008E9010008E901000898
:1000A000E9010008E9010008E9010008E901000888
:1000B000E9010008E9010008E9010008E901000878
:1000C000E9010008E9010008E9010008E901000868
:1000D000E9010008E9010008E9010008E901000858
:1000E000E9010008E9010008E9010008E901000848
:1000F000E9010008E9010008E9010008E901000838
:10010000E9010008E9010008E9010008E901000827
:10011000E9010008E9010008E9010008E901000817
:10012000E9010008E9010008E9010008E901000807
:10013000E9010008E9010008E9010008E9010008F7
:10014000E9010008E9010008E9010008E9010008E7
:10015000E9010008E9010008E9010008E9010008D7
:10016000E9010008E9010008E9010008E9010008C7
:10017000E9010008E9010008E9010008E9010008B7
:10018000E9010008E901000880B582B000AF114B19
:100190007B60114B3B6007E03B681A1D3A607A6850
:1001A000111D796012681A603B680C4A9342F3D3C0
:1001B0000B480C494FF000028842B8BF40F8042BAE
:1001C000FADB00F0DBFB00F0A1FA00BF0837BD4608
:1001D00080BD00BF58120008000000200000002071
:1001E000000000200C02002080B400AFFEE700BF3A
:1001F00080B582B000AF0121042000F0ADFA4023A9
:100200003B6002233B7103237B710023BB710123FD
:10021000FB713B461946074800F0DAFA054B4022CD
:100220005A8302220621034800F060FB00BF083712
:10023000BD4680BD0008024080B588B000AF0121F6
:10024000022000F0A7FA01214FF4001000F084FA18
:100250006823BB610023BB820023BB830023FB8296
:1002600007F1140319460E4800F092FE60233B800C
:1002700001237B800023BB600023BB813B461946E2
:10028000074800F02FFF0821054800F0A5FF0121D5
:10029000034800F0E7FE00BF2037BD4680BD00BF29
:1002A0000004004080B590B000AF0021184800F075
:1002B00035FD174800F00AFC4FF020637B60154BBA
:1002C000BB60154BFB6040233B61C0237B61002377
:1002D000BB614FF48063FB614FF400633B624FF4FA
:1002E00000637B620023BB624FF44033FB62002358
:1002F0003B6301237B630023BB630023FB633B1D44
:100300001946034800F0B4FC00BF4037BD4680BD2D
:1003100070600240340400400800002080B500AF47
:100320000B490C4800F050FD0346002B0ED0084945
:10033000084800F09FFD0021074800F0B3FE0021AF
:10034000044800F0EBFC054B00221A6000BF80BDA2
:10035000208000207060024000040040E80100207E
:1003600080B500AF094B01221A60FFF79BFF012205
:100370001021074800F0EEFC0121054800F0CEFCFA
:100380000121044800F08EFE00BF80BDE80100207E
:10039000706002400004004080B582B000AF0122CE
:1003A0004FF40071094800F033FF0F233B71002325
:1003B0007B710023BB710123FB713B1D184600F0CC
:1003C00087FD00BF0837BD4680BD00BF0004004068
:1003D00080B483B000AF0346FB71FB79012B09D1D8
:1003E000074B01221A70074B074A1A60074B082275
:1003F0001A6000E000BF0C37BD4680BC704700BFEC
:10040000EC010020F0010020F40100200400002095
:1004100080B483B000AF8023FB7000237B606EE06C
:100420003D4B19687A6813465B001344CA183B4673
:100430001188927819809A708023FB7019E0374BED
:100440001B68374A1D2122F813107A78FB78134075
:10045000DBB2002B05D0314B1B68314A4C2122F80E
:1004600013102E4B1B6801332C4A1360FB785B087A
:10047000FB70FB78002BE2D18023FB7019E0274B47
:100480001B68274A1D2122F813103A78FB78134085
:10049000DBB2002B05D0214B1B68214A4C2122F8EE
:1004A00013101E4B1B6801331C4A1360FB785B085A
:1004B000FB70FB78002BE2D18023FB7019E0174B17
:1004C0001B68174A1D2122F81310BA78FB781340D5
:1004D000DBB2002B05D0114B1B68114A4C2122F8CE
:1004E00013100E4B1B6801330C4A1360FB785B083A
:1004F000FB70FB78002BE2D17B6801337B60094BFA
:100500001B687A689A428BD3044B00221A6000BFA2
:100510000C37BD4680BC7047F00100200000002071
:10052000080000200400002080B500AF00BF054B8C
:100530001B68002BFBD1FFF76BFFFFF711FF00BF1C
:1005400080BD00BFE801002080B584B000AF7860B6
:100550000B46FB700023FB600FE00F4B1968FA6835
:1005600013465B0013440B441A463B1D19889B78C5
:1005700011809370FB680133FB60084B1B68FA68BD
:100580009A42EAD3FB78012B01D1FFF7CDFF00BFE0
:100590001037BD4680BD00BFF001002004000020E0
:1005A00080B584B000AFF860B9601346FB710E4BA4
:1005B0001B68FA689A4212D20C4B1968FA68134603
:1005C0005B0013440B441A4607F1080319889B7813
:1005D00011809370FB79012B01D1FFF7A5FF00BFBC
:1005E0001037BD4680BD00BF04000020F001002090
:1005F00080B582B000AF0120FFF7EAFE00BF0B4BD1
:100600001B68002BFBD1FFF7ABFE0120FFF7E0FEDC
:1006100000233B7100237B710023BB7101217868AB
:10062000FFF792FF00BF0837BD4680BDE8010020FC
:1006300080B582B000AF284B00221A60274B002201
:100640001A70274B00221A6000237B6007E0254ABE
:100650007B68002122F813107B6801337B607B6884
:10066000EF2BF4D900237B601CE01F497A68134606
:100670005B0013440B4400221A701B497A6813462E
:100680005B0013440B44013300221A7016497A6848
:1006900013465B0013440B44023300221A707B683C
:1006A00001337B607B68072BDFD90C4B01221A706A
:1006B0000A4B1B781846FFF78BFEFFF799FDFFF7F3
:1006C000BBFDFFF769FEFFF7EDFDFFF791FF00BFF0
:1006D0000837BD4680BD00BFE8010020EC010020C6
:1006E0000400002008000020F401002080B483B042
:1006F00000AF786000BF7B685A1E7A60002BFAD189
:1007000000BF0C37BD4680BC704700BF80B588B0C5
:1007100000AF00F033F9FFF78BFF00233B77002396
:100720007B770023BB77FF233B7600237B76002378
:10073000BB76084B00221A600022F9690020FFF7FF
:100740002FFF0122B9690120FFF72AFF1420FFF7CC
:10075000CDFFFBE70000002080B483B000AF7860DD
:100760000B46FB70FB78002B06D00949084B1A6B2F
:100770007B6813430B6306E00549054B1A6B7B68E6
:10078000DB4313400B6300BF0C37BD4680BC704792
:100790000038024080B483B000AF78600B46FB7035
:1007A000FB78002B06D00949084B1A6C7B68134371
:1007B0000B6406E00549054B1A6C7B68DB4313406C
:1007C0000B6400BF0C37BD4680BC70470038024048
:1007D00080B487B000AF7860396000237B6100236C
:1007E0003B610023FB6000237B6176E001227B6993
:1007F00002FA03F33B613B681A683B691340FB60F4
:10080000FA683B699A4265D17B681A687B695B002C
:10081000032101FA03F3DB431A407B681A607B680B
:100820001A683B681B7919467B695B0001FA03F380
:100830001A437B681A603B681B79012B03D03B6825
:100840001B79022B2ED17B689A687B695B000321A0
:1008500001FA03F3DB431A407B689A607B689A686D
:100860003B685B7919467B695B0001FA03F31A4325
:100870007B689A607B685A687B699BB21946012342
:100880008B40DB431A407B685A607B685B683A6840
:10089000927911467A6992B201FA02F292B21A433F
:1008A0007B685A607B68DA687B699BB25B000321D6
:1008B00001FA03F3DB431A407B68DA607B68DA688D
:1008C0003B68DB7919467B695B0001FA03F31A4345
:1008D0007B68DA607B6901337B617B690F2B85D98B
:1008E00000BF1C37BD4680BC704700BF80B485B0D8
:1008F00000AF78600B467B8013467B700023FB6063
:100900000023BB607A787B8803F007039B0002FA20
:1009100003F3FB607B88DB089BB218467B88DB080F
:100920009BB21A467B68083253F822207B8803F07A
:1009300007039B000F2101FA03F3DB4302EA0301E3
:100940007B6800F1080243F822107B88DB089BB229
:100950001A467B68083253F82220FB681343BB60B9
:100960007B88DB089BB21A467B680832B96843F87B
:10097000221000BF1437BD4680BC704780B500AF61
:10098000124A124B1B6843F0010313600F4B002205
:100990009A600E4A0D4B1B6823F0847323F4803356
:1009A00013600A4B0A4A5A60084A084B1B6823F432
:1009B00080231360054B0022DA6000F00DF8054B30
:1009C0004FF000629A6000BF80BD00BF0038024057
:1009D0001030002400ED00E080B483B000AF0023AD
:1009E0007B6000233B60354A344B1B6843F4803303
:1009F0001360324B1B6803F400333B607B680133A8
:100A00007B603B68002B03D17B68B3F5A06FF0D10E
:100A10002A4B1B6803F40033002B02D001233B60F8
:100A200001E000233B603B68012B42D1234A234B6A
:100A30001B6C43F080531364214A214B1B6843F421
:100A4000804313601D4A1D4B9B6893601B4A1B4BE0
:100A50009B6843F400439360184A184B9B6843F427
:100A6000A0539360154B174A5A60144A134B1B68E6
:100A700043F08073136000BF104B1B6803F00073DA
:100A8000002BF9D0104B40F205621A600B4A0B4B59
:100A90009B6823F003039360084A084B9B6843F06C
:100AA0000203936000BF054B9B6803F00C03082B07
:100AB000F9D100BF0C37BD4680BC704700380240FA
:100AC0000070004008544007003C024080B483B0EE
:100AD00000AF78607B681B6823F001027B681A60B6
:100AE0007B6800221A607B6800225A607B680022C3
:100AF0009A607B680022DA607B6800221A617B685A
:100B000021225A617B68454A934203D1444B3D22DE
:100B10009A607EE07B68434A934204D1404B4FF495
:100B200074629A6075E07B683F4A934204D13C4B03
:100B30004FF474129A606CE07B683C4A934204D193
:100B4000374B4FF074629A6063E07B68384A934297
:100B500003D1334B374ADA605BE07B68364A934215
:100B600003D12F4B354ADA6053E07B68344A934215
:100B700003D12B4B334ADA604BE07B68324A934215
:100B800004D1274B4FF03D52DA6042E07B682F4A98
:100B9000934203D12E4B3D229A603AE07B682D4A66
:100BA000934204D12A4B4FF474629A6031E07B681F
:100BB000294A934204D1264B4FF474129A6028E0DC
:100BC0007B68264A934204D1214B4FF074629A60AD
:100BD0001FE07B68224A934203D11D4B154ADA601D
:100BE00017E07B681F4A934203D1194B134ADA601E
:100BF0000FE07B681C4A934203D1154B114ADA601F
:100C000007E07B68194A934203D1114B4FF03D52E4
:100C1000DA6000BF0C37BD4680BC704710600240F0
:100C2000006002402860024040600240586002407C
:100C3000706002403D00002088600240400F0020AC
:100C4000A060024000003D20B860024010640240F5
:100C5000006402402864024040640240586402403C
:100C60007064024088640240A0640240B86402409C
:100C700080B485B000AF786039600023FB607B688A
:100C80001B68FB60FA68244B1340FB603B681A68E2
:100C90003B68DB681A433B685B691A433B689B69A6
:100CA0001A433B68DB691A433B681B6A1A433B687B
:100CB0005B6A1A433B689B6A1A433B685B6B1A4347
:100CC0003B689B6B1343FA681343FB607B68FA68CD
:100CD0001A607B685B69FB60FB6823F00703FB60BD
:100CE0003B68DA6A3B681B6B1343FA681343FB608B
:100CF0007B68FA685A613B681A697B685A603B688E
:100D00005A687B689A603B689A687B68DA6000BFC3
:100D10001437BD4680BC70473F801CF080B483B060
:100D200000AF78600B46FB70FB78002B06D07B6829
:100D30001B6843F001027B681A6005E07B681B6852
:100D400023F001027B681A6000BF0C37BD4680BCEF
:100D5000704700BF80B485B000AFF860B96013463B
:100D6000FB71BB6803F08003002B0FD0FB79002BD5
:100D700006D0FB685B6943F08002FB685A6105E0BE
:100D8000FB685B6923F08002FB685A61BB68802BBB
:100D900014D0FB79002B08D0FB681A68BB6803F0FD
:100DA0001E031A43FB681A6008E0FB681A68BB68F8
:100DB00003F01E03DB431A40FB681A6000BF1437C0
:100DC000BD4680BC704700BF80B487B000AF78607C
:100DD00039600023FB750023FB600023BB607B6848
:100DE000214A934202D8214B3B6101E0204B3B61F9
:100DF0003B6823F0F02323F0C313002B0AD03B6899
:100E0000DB0A03F01E03FB607B681A68FB68134073
:100E1000BB6004E07B685B6903F08003BB603B68F8
:100E200003F00053002B03D03B695B68FB6002E0DA
:100E30003B691B68FB60FB6823F0F02323F08213FF
:100E4000FB60FA683B681340002B05D0BB68002BA1
:100E500002D00123FB7501E00023FB75FB7D1846E2
:100E60001C37BD4680BC70470F64024000600240E2
:100E70000064024080B485B000AF786039607B6860
:100E8000104A934202D8104BFB6001E00F4BFB600D
:100E90003B6803F00053002B07D03B6823F0F0239E
:100EA00023F08213FA68D36006E03B6823F0F02356
:100EB00023F08213FA68936000BF1437BD4680BCEC
:100EC000704700BF0F6402400060024000640240AF
:100ED00080B485B000AF78600023FB730023BB7340
:100EE0000F237B737B68DB78002B38D0264BDB68C5
:100EF000DB4303F4E0631B0AFB73FB7BC3F10403D6
:100F0000BB737A7BFB7B42FA03F37B737B685B7872
:100F10001A46BB7B02FA03F3FB737B689A787B7BF0
:100F20001340DAB2FB7B1343FB73FB7B1B01FB73A8
:100F3000164A7B681B781344FA7B83F80023134A14
:100F40007B681B785B09DBB218467B681B7803F073
:100F50001F03012101FA03F342F820300FE00B498F
:100F60007B681B785B09DBB218467B681B7803F053
:100F70001F0301229A4000F1200341F8232000BF03
:100F80001437BD4680BC704700ED00E000E100E092
:100F900080B485B000AF786039600023FB817B6846
:100FA0001B88FB817B68284A934213D07B68274AC1
:100FB00093420FD07B68B3F1804F0BD07B68244AFB
:100FC000934207D07B68234A934203D07B68224A2E
:100FD000934208D1FB8923F07003FB813B685A8858
:100FE000FB891343FB817B681C4A93420CD07B68CE
:100FF0001B4A934208D0FB8923F44073FB813B6872
:101000001A89FB891343FB817B68FA891A803B6844
:101010005A687B68DA623B681A887B681A857B6845
:10102000094A934203D07B68084A934204D13B6843
:101030009B7A9AB27B681A867B6801229A8200BFEB
:101040001437BD4680BC70470000014000040140D9
:101050000004004000080040000C00400010004068
:101060000014004080B483B000AF78600B46FB7082
:10107000FB78002B08D07B681B889BB243F0800371
:101080009AB27B681A8007E07B681B889BB223F0CA
:1010900080039AB27B681A8000BF0C37BD4680BCC3
:1010A000704700BF80B483B000AF78600B46FB7020
:1010B000FB78002B08D07B681B889BB243F00103B0
:1010C0009AB27B681A8007E07B681B889BB223F08A
:1010D00001039AB27B681A8000BF0C37BD4680BC02
:1010E000704700BF80B485B000AF786039600023DE
:1010F0007B810023FB810023BB817B681B8C9BB21F
:1011000023F001039AB27B681A847B681B8CFB81F5
:101110007B689B88BB817B681B8B7B817B8923F0F1
:1011200070037B817B8923F003037B813B681A88F2
:101130007B8913437B81FB8923F00203FB813B689E
:101140009A89FB891343FB813B685A88FB891343C7
:10115000FB817B681E4A934203D07B681D4A934201
:1011600023D1FB8923F00803FB813B68DA89FB89E3
:101170001343FB81FB8923F00403FB813B689A88BE
:10118000FB891343FB81BB8923F48073BB81BB893B
:1011900023F40073BB813B681A8ABB891343BB816C
:1011A0003B685A8ABB891343BB817B68BA899A80A2
:1011B0007B687A891A833B689A687B685A637B6884
:1011C000FA891A8400BF1437BD4680BC704700BF3F
:1011D000000001400004014080B485B000AF786099
:1011E0000B467B800023FB817B681B8BFB81FB898B
:1011F00023F00803FB81FA897B881343FB817B681A
:10120000FA891A8300BF1437BD4680BC704700BFFF
:1012100080B483B000AF78600B467B8013467B7050
:101220007B78002B08D07B689B899AB27B8813431C
:101230009AB27B689A8109E07B689B899AB27B8825
:10124000DB439BB213409AB27B689A8100BF0C3794
:08125000BD4680BC704700BFE1
:0400000508000000EF
:00000001FF
